:100000000C945D000C9406030C94DF020C948500A4
:100010000C9485000C9485000C9485000C9485004C
:100020000C9485000C9485000C9485000C9485003C
:100030000C9485000C9485000C9485000C9485002C
:100040000C9495020C9485000C9453030C942D038E
:100050000C9485000C9485000C9485000C9485000C
:100060000C9485000C9485000000000024002700FB
:100070002A0000000000250028002B0004040404CE
:100080000404040402020202020203030303030342
:10009000010204081020408001020408102001021F
:1000A00004081020000000080002010000030407FB
:1000B0000000000000000000D80411241FBECFEF94
:1000C000D8E0DEBFCDBF11E0A0E0B1E0EAE1FAE0A8
:1000D00002C005900D92A434B107D9F721E0A4E441
:1000E000B1E001C01D92AA3EB207E1F710E0CDE5F4
:1000F000D0E004C02197FE010E940505CC35D10750
:10010000C9F70E9485030C940B050C94000090E045
:10011000FC01EC55FF4F2491FC01E057FF4F349157
:10012000FC01E458FF4FE491EE23C9F0222339F09B
:10013000233001F1A8F4213019F1223029F1F0E047
:10014000EE0FFF1FEE58FF4FA591B4918FB7F894B3
:10015000EC91611126C030953E233C938FBF0895EA
:100160002730A9F02830C9F0243049F78091800069
:100170008F7D03C0809180008F7780938000DFCFD8
:1001800084B58F7784BDDBCF84B58F7DFBCF809125
:10019000B0008F778093B000D2CF8091B0008F7D78
:1001A000F9CF3E2BDACFCF93DF9390E0FC01E057FD
:1001B000FF4F249184589F4FFC0184918823D1F0F4
:1001C00090E0880F991FFC01E859FF4FA591B49169
:1001D000FC01EE58FF4FC591D491623071F49FB786
:1001E000F8943C91822F809583238C93E8812E2B69
:1001F00028839FBFDF91CF9108958FB7F894EC913A
:100200002E2B2C938FBFF6CF3FB7F89480914901E6
:1002100090914A01A0914B01B0914C0126B5A89B49
:1002200005C02F3F19F00196A11DB11D3FBFBA2F88
:10023000A92F982F8827BC01CD01620F711D811D48
:10024000911D42E0660F771F881F991F4A95D1F7CD
:1002500008958F929F92AF92BF92CF92DF92EF92CA
:10026000FF924B015C010E9404016B017C010E9422
:1002700004016C197D098E099F09683E7340810550
:100280009105A8F321E0821A9108A108B10888EE2F
:10029000C80E83E0D81EE11CF11C81149104A10456
:1002A000B10429F7FF90EF90DF90CF90BF90AF900F
:1002B0009F908F900895209106013091070181E071
:1002C00090E0232B11F090E080E090930701809361
:1002D000060108950895AF92BF92CF92DF92EF92F8
:1002E000FF920F931F93CF93DF936C017B018B01E0
:1002F000040F151FEB015E01AE18BF08C017D10730
:1003000059F06991D601ED91FC910190F081E02DB9
:10031000C6010995892B79F7C501DF91CF911F910E
:100320000F91FF90EF90DF90CF90BF90AF90089526
:10033000FC01538D448D252F30E0842F90E0821BEB
:10034000930B541710F0CF96089501970895FC0170
:10035000918D828D981761F0A28DAE0FBF2FB11DC8
:100360005D968C91928D9F5F9F73928F90E0089520
:100370008FEF9FEF0895FC01918D828D981731F0DA
:10038000828DE80FF11D858D90E008958FEF9FEF2E
:100390000895FC01918D228D892F90E0805C9F4F04
:1003A000821B91098F73992708958DE491E00E9433
:1003B000C90121E0892B09F420E0822F089580E013
:1003C00090E0892B29F00E94D50181110C94000046
:1003D0000895FC01A48DA80FB92FB11DA35ABF4FDA
:1003E0002C91848D90E001968F739927848FA68934
:1003F000B7892C93A089B1898C91837080648C9388
:10040000938D848D981306C00288F389E02D808136
:100410008F7D80830895EF92FF920F931F93CF9368
:10042000DF93EC0181E0888F9B8D8C8D98131AC02F
:10043000E889F989808185FF15C09FB7F894EE8916
:10044000FF896083E889F989808183708064808373
:100450009FBF81E090E0DF91CF911F910F91FF90BE
:10046000EF900895F62E0B8D10E00F5F1F4F0F7366
:100470001127E02E8C8D8E110CC00FB607FCFACF21
:10048000E889F989808185FFF5CFCE010E94E901D5
:10049000F1CFEB8DEC0FFD2FF11DE35AFF4FF082F2
:1004A0009FB7F8940B8FEA89FB8980818062CFCF58
:1004B000CF93DF93EC01888D8823B9F0AA89BB899B
:1004C000E889F9898C9185FD03C0808186FD0DC086
:1004D0000FB607FCF7CF8C9185FFF2CF808185FFA7
:1004E000EDCFCE010E94E901E9CFDF91CF910895D0
:1004F000CF93DF93FC0101900020E9F73197AF0122
:10050000481B590BBC018DE491E00E946B01EC018A
:1005100042E050E06AE171E08DE491E00E946B01FD
:100520008C0F9D1FDF91CF9108951F920F920FB6F0
:100530000F9211242F933F938F939F93AF93BF9369
:100540008091450190914601A0914701B0914801E9
:100550003091440123E0230F2D3758F50196A11D5A
:10056000B11D209344018093450190934601A093CF
:100570004701B09348018091490190914A01A091AF
:100580004B01B0914C010196A11DB11D8093490111
:1005900090934A01A0934B01B0934C01BF91AF914E
:1005A0009F918F913F912F910F900FBE0F901F90B1
:1005B000189526E8230F0296A11DB11DD2CF1F92D8
:1005C0000F920FB60F9211242F933F934F935F9387
:1005D0006F937F938F939F93AF93BF93EF93FF930B
:1005E000E0910201F09103010995FF91EF91BF9114
:1005F000AF919F918F917F916F915F914F913F91BB
:100600002F910F900FBE0F901F9018951F920F9271
:100610000FB60F9211242F933F934F935F936F93D5
:100620007F938F939F93AF93BF93EF93FF93E0914B
:100630000001F09101010995FF91EF91BF91AF91F8
:100640009F918F917F916F915F914F913F912F91EA
:100650000F900FBE0F901F9018951F920F920FB61C
:100660000F9211242F933F934F935F936F937F9338
:100670008F939F93AF93BF93EF93FF938DE491E09C
:100680000E94E901FF91EF91BF91AF919F918F91EE
:100690007F916F915F914F913F912F910F900FBE7E
:1006A0000F901F9018951F920F920FB60F92112462
:1006B0002F938F939F93EF93FF93E0915D01F091C0
:1006C0005E018081E0916301F091640182FD1BC0B5
:1006D0009081809166018F5F8F73209167018217EF
:1006E00041F0E0916601F0E0E35BFE4F958F80936F
:1006F0006601FF91EF919F918F912F910F900FBE07
:100700000F901F9018958081F4CF789484B5826003
:1007100084BD84B5816084BD85B5826085BD85B5A5
:10072000816085BD80916E00816080936E00109223
:10073000810080918100826080938100809181009E
:10074000816080938100809180008160809380002F
:100750008091B10084608093B1008091B00081608D
:100760008093B00080917A00846080937A008091B9
:100770007A00826080937A0080917A008160809311
:100780007A0080917A00806880937A001092C1008C
:1007900061E084E00E94D30061E083E00E94D30026
:1007A00061E08DE00E94D30061E086E00E94D3000A
:1007B00061E088E00E94D30061E085E00E94D30000
:1007C00062E082E00E94D300E0915D01F0915E0161
:1007D00082E08083E0915901F0915A011082E0910A
:1007E0005B01F0915C018FEC808310926501E091D8
:1007F0006101F091620186E08083E0915F01F091F8
:100800006001808180618083E0915F01F0916001EF
:10081000808188608083E0915F01F0916001808138
:1008200080688083E0915F01F091600180818F7D1D
:1008300080838BE591E0909301018093000180918A
:1008400069008C7F826080936900E89A00E010E084
:10085000C0910601D0910701C130D10509F064C0F3
:100860008DE191E00E94780260E085E00E948700BF
:1008700061E08DE00E94870060E088E00E948700D0
:1008800060E084E00E94870061E086E00E948700CB
:1008900060E083E00E94870068EB7BE080E090E00E
:1008A0000E94290161E083E00E94870060ED77E00B
:1008B00080E090E00E94290160E085E00E948700CE
:1008C00060E08DE00E94870061E088E00E94870080
:1008D00061E084E00E94870060E086E00E9487007B
:1008E00060E083E00E94870068EB7BE080E090E0BE
:1008F0000E94290161E083E00E94870060ED77E0BB
:1009000080E090E00E942901D0930501C09304018A
:100910000115110509F49CCF0E94D501882309F423
:1009200097CF0E94000094CF80910601909107011B
:10093000892B71F7C0910401D0910501C130D10517
:1009400039F782E391E00E94780260E08DE00E9436
:10095000870060E088E00E94870061E084E00E94F8
:10096000870061E086E00E94870060E083E00E94EB
:10097000870061E085E00E94870068E873E180E01D
:1009800090E00E94290160E084E00E94870060E01E
:1009900086E00E94870060E085E00E948700109258
:1009A000050110920401D0930701C0930601B0CF56
:1009B000EDE4F1E01382128288EE93E0A0E0B0E073
:1009C00084839583A683B7838CE091E091838083B1
:1009D00085EC90E09587848784EC90E09787868704
:1009E00080EC90E0918B808B81EC90E0938B828BFC
:1009F00082EC90E0958B848B86EC90E0978B868BD5
:100A0000118E128E138E148E0895EE0FFF1F059017
:0A0A1000F491E02D0994F894FFCF53
:100A1A006A016A0101000100000000000B026B017B
:100A2A0098015802C901A701BB010D0A00456E20B1
:100A3A00466F6E6374696F6E6E656D656E742E2E89
:100A4A002E005041535341474520504945544F4E7B
:040A5A002E2E2E000E
:00000001FF
